{
  "_format": "hh-sol-artifact-1",
  "contractName": "Marketpulse",
  "sourceName": "contracts/Marketpulse.sol",
  "abi": [
    {
      "inputs": [],
      "stateMutability": "payable",
      "type": "constructor"
    },
    {
      "anonymous": false,
      "inputs": [],
      "name": "Pong",
      "type": "event"
    },
    {
      "inputs": [],
      "name": "FEES",
      "outputs": [
        {
          "internalType": "uint256",
          "name": "",
          "type": "uint256"
        }
      ],
      "stateMutability": "view",
      "type": "function"
    },
    {
      "inputs": [],
      "name": "ODD_DECIMALS",
      "outputs": [
        {
          "internalType": "uint256",
          "name": "",
          "type": "uint256"
        }
      ],
      "stateMutability": "view",
      "type": "function"
    },
    {
      "inputs": [
        {
          "internalType": "address",
          "name": "_addr",
          "type": "address"
        }
      ],
      "name": "addressToString",
      "outputs": [
        {
          "internalType": "string",
          "name": "",
          "type": "string"
        }
      ],
      "stateMutability": "pure",
      "type": "function"
    },
    {
      "inputs": [],
      "name": "admin",
      "outputs": [
        {
          "internalType": "address payable",
          "name": "",
          "type": "address"
        }
      ],
      "stateMutability": "view",
      "type": "function"
    },
    {
      "inputs": [
        {
          "internalType": "string",
          "name": "selection",
          "type": "string"
        },
        {
          "internalType": "uint256",
          "name": "odds",
          "type": "uint256"
        }
      ],
      "name": "bet",
      "outputs": [
        {
          "internalType": "uint256",
          "name": "",
          "type": "uint256"
        }
      ],
      "stateMutability": "payable",
      "type": "function"
    },
    {
      "inputs": [
        {
          "internalType": "uint256",
          "name": "",
          "type": "uint256"
        }
      ],
      "name": "betKeys",
      "outputs": [
        {
          "internalType": "uint256",
          "name": "",
          "type": "uint256"
        }
      ],
      "stateMutability": "view",
      "type": "function"
    },
    {
      "inputs": [
        {
          "internalType": "uint256",
          "name": "",
          "type": "uint256"
        }
      ],
      "name": "bets",
      "outputs": [
        {
          "internalType": "uint256",
          "name": "id",
          "type": "uint256"
        },
        {
          "internalType": "address payable",
          "name": "owner",
          "type": "address"
        },
        {
          "internalType": "string",
          "name": "option",
          "type": "string"
        },
        {
          "internalType": "uint256",
          "name": "amount",
          "type": "uint256"
        }
      ],
      "stateMutability": "view",
      "type": "function"
    },
    {
      "inputs": [
        {
          "internalType": "string",
          "name": "option",
          "type": "string"
        },
        {
          "internalType": "uint256",
          "name": "betAmount",
          "type": "uint256"
        }
      ],
      "name": "calculateOdds",
      "outputs": [
        {
          "internalType": "uint256",
          "name": "",
          "type": "uint256"
        }
      ],
      "stateMutability": "view",
      "type": "function"
    },
    {
      "inputs": [],
      "name": "getBetKeys",
      "outputs": [
        {
          "internalType": "uint256[]",
          "name": "",
          "type": "uint256[]"
        }
      ],
      "stateMutability": "view",
      "type": "function"
    },
    {
      "inputs": [
        {
          "internalType": "uint256",
          "name": "betId",
          "type": "uint256"
        }
      ],
      "name": "getBets",
      "outputs": [
        {
          "components": [
            {
              "internalType": "uint256",
              "name": "id",
              "type": "uint256"
            },
            {
              "internalType": "address payable",
              "name": "owner",
              "type": "address"
            },
            {
              "internalType": "string",
              "name": "option",
              "type": "string"
            },
            {
              "internalType": "uint256",
              "name": "amount",
              "type": "uint256"
            }
          ],
          "internalType": "struct Marketpulse.Bet",
          "name": "bet",
          "type": "tuple"
        }
      ],
      "stateMutability": "view",
      "type": "function"
    },
    {
      "inputs": [],
      "name": "ping",
      "outputs": [],
      "stateMutability": "nonpayable",
      "type": "function"
    },
    {
      "inputs": [
        {
          "internalType": "string",
          "name": "optionResult",
          "type": "string"
        },
        {
          "internalType": "enum Marketpulse.BET_RESULT",
          "name": "result",
          "type": "uint8"
        }
      ],
      "name": "resolveResult",
      "outputs": [],
      "stateMutability": "nonpayable",
      "type": "function"
    },
    {
      "inputs": [],
      "name": "status",
      "outputs": [
        {
          "internalType": "enum Marketpulse.BET_RESULT",
          "name": "",
          "type": "uint8"
        }
      ],
      "stateMutability": "view",
      "type": "function"
    },
    {
      "inputs": [],
      "name": "winner",
      "outputs": [
        {
          "internalType": "string",
          "name": "",
          "type": "string"
        }
      ],
      "stateMutability": "view",
      "type": "function"
    }
  ],
  "bytecode": "0x60806040526002600360006101000a81548160ff021916908360028111156200002d576200002c62000078565b5b0217905550336000806101000a81548173ffffffffffffffffffffffffffffffffffffffff021916908373ffffffffffffffffffffffffffffffffffffffff160217905550620000a7565b7f4e487b7100000000000000000000000000000000000000000000000000000000600052602160045260246000fd5b61348b80620000b76000396000f3fe6080604052600436106100dd5760003560e01c80637a4f4e9c1161007f578063dfbf53ae11610059578063dfbf53ae146102d7578063e9c20cb914610302578063f65e650114610332578063f851a4401461035d576100dd565b80637a4f4e9c146102465780638b7b23ee1461026f578063bb0b64431461029a576100dd565b8063200d2ed2116100bb578063200d2ed21461018757806322af00fa146101b25780635c36b186146101f25780635e57966d14610209576100dd565b806308888c0a146100e25780631ccf69551461010d5780631d86be881461014a575b600080fd5b3480156100ee57600080fd5b506100f7610388565b6040516101049190611f41565b60405180910390f35b34801561011957600080fd5b50610134600480360381019061012f9190611f9c565b61038d565b604051610141919061210c565b60405180910390f35b34801561015657600080fd5b50610171600480360381019061016c9190612263565b6104b6565b60405161017e9190611f41565b60405180910390f35b34801561019357600080fd5b5061019c610adb565b6040516101a99190612336565b60405180910390f35b3480156101be57600080fd5b506101d960048036038101906101d49190611f9c565b610aee565b6040516101e994939291906123aa565b60405180910390f35b3480156101fe57600080fd5b50610207610bc6565b005b34801561021557600080fd5b50610230600480360381019061022b9190612434565b610c32565b60405161023d9190612461565b60405180910390f35b34801561025257600080fd5b5061026d600480360381019061026891906124a8565b610f09565b005b34801561027b57600080fd5b5061028461153f565b6040516102919190611f41565b60405180910390f35b3480156102a657600080fd5b506102c160048036038101906102bc9190611f9c565b611544565b6040516102ce9190611f41565b60405180910390f35b3480156102e357600080fd5b506102ec611568565b6040516102f99190612461565b60405180910390f35b61031c60048036038101906103179190612564565b6115f6565b6040516103299190611f41565b60405180910390f35b34801561033e57600080fd5b5061034761187d565b6040516103549190612673565b60405180910390f35b34801561036957600080fd5b506103726118d5565b60405161037f9190612695565b60405180910390f35b600a81565b610395611ee0565b60016000838152602001908152602001600020604051806080016040529081600082015481526020016001820160009054906101000a900473ffffffffffffffffffffffffffffffffffffffff1673ffffffffffffffffffffffffffffffffffffffff1673ffffffffffffffffffffffffffffffffffffffff168152602001600282018054610423906126df565b80601f016020809104026020016040519081016040528092919081815260200182805461044f906126df565b801561049c5780601f106104715761010080835404028352916020019161049c565b820191906000526020600020905b81548152906001019060200180831161047f57829003601f168201915b505050505081526020016003820154815250509050919050565b60006104db6040518060600160405280603081526020016134046030913984846118f9565b6000805b6002805490508110156106b3576000600160006002848154811061050657610505612710565b5b90600052602060002001548152602001908152602001600020604051806080016040529081600082015481526020016001820160009054906101000a900473ffffffffffffffffffffffffffffffffffffffff1673ffffffffffffffffffffffffffffffffffffffff1673ffffffffffffffffffffffffffffffffffffffff16815260200160028201805461059a906126df565b80601f01602080910402602001604051908101604052809291908181526020018280546105c6906126df565b80156106135780601f106105e857610100808354040283529160200191610613565b820191906000526020600020905b8154815290600101906020018083116105f657829003601f168201915b5050505050815260200160038201548152505090508580519060200120816040015180519060200120146106a55760008061065b83606001518661199890919063ffffffff16565b915091508161069f576040517f08c379a0000000000000000000000000000000000000000000000000000000008152600401610696906127b1565b60405180910390fd5b80945050505b5080806001019150506104df565b506106f36040518060400160405280601581526020017f746f74616c4c6f736572416d6f756e74203a2025640000000000000000000000815250826119c7565b600083905060005b6002805490508110156108cf576000600160006002848154811061072257610721612710565b5b90600052602060002001548152602001908152602001600020604051806080016040529081600082015481526020016001820160009054906101000a900473ffffffffffffffffffffffffffffffffffffffff1673ffffffffffffffffffffffffffffffffffffffff1673ffffffffffffffffffffffffffffffffffffffff1681526020016002820180546107b6906126df565b80601f01602080910402602001604051908101604052809291908181526020018280546107e2906126df565b801561082f5780601f106108045761010080835404028352916020019161082f565b820191906000526020600020905b81548152906001019060200180831161081257829003601f168201915b5050505050815260200160038201548152505090508680519060200120816040015180519060200120036108c15760008061087783606001518661199890919063ffffffff16565b91509150816108bb576040517f08c379a00000000000000000000000000000000000000000000000000000000081526004016108b290612843565b60405180910390fd5b80945050505b5080806001019150506106fb565b5061090f6040518060400160405280601781526020017f746f74616c57696e6e6572416d6f756e7420203a202564000000000000000000815250826119c7565b600061092883600a8061092291906129c5565b84611a63565b90506109696040518060400160405280601981526020017f7061727420706572204f44445f444543494d414c203a20256400000000000000815250826119c7565b60008061098b600a8061097c91906129c5565b8461199890919063ffffffff16565b91509150816109cf576040517f08c379a00000000000000000000000000000000000000000000000000000000081526004016109c690612a5c565b60405180910390fd5b610a0e6040518060400160405280601481526020017f6f6464776974686f75744665657320203a202564000000000000000000000000815250826119c7565b600080610a486064600a80610a2391906129c5565b600a610a2f9190612a7c565b610a399190612aed565b84611b5190919063ffffffff16565b9150915081610a8c576040517f08c379a0000000000000000000000000000000000000000000000000000000008152600401610a8390612b6a565b60405180910390fd5b610acb6040518060400160405280600981526020017f6f646420203a2025640000000000000000000000000000000000000000000000815250826119c7565b8097505050505050505092915050565b600360009054906101000a900460ff1681565b60016020528060005260406000206000915090508060000154908060010160009054906101000a900473ffffffffffffffffffffffffffffffffffffffff1690806002018054610b3d906126df565b80601f0160208091040260200160405190810160405280929190818152602001828054610b69906126df565b8015610bb65780601f10610b8b57610100808354040283529160200191610bb6565b820191906000526020600020905b815481529060010190602001808311610b9957829003601f168201915b5050505050908060030154905084565b610c046040518060400160405280600481526020017f50696e6700000000000000000000000000000000000000000000000000000000815250611b79565b7f4d015fcc2a20c24d7be893b3a525eac864b5a53a5f88ef7201a600465c73314e60405160405180910390a1565b606060006040518060400160405280601081526020017f3031323334353637383961626364656600000000000000000000000000000000815250905060008360601b90506000602a67ffffffffffffffff811115610c9357610c92612138565b5b6040519080825280601f01601f191660200182016040528015610cc55781602001600182028036833780820191505090505b5090507f300000000000000000000000000000000000000000000000000000000000000081600081518110610cfd57610cfc612710565b5b60200101907effffffffffffffffffffffffffffffffffffffffffffffffffffffffffffff1916908160001a9053507f780000000000000000000000000000000000000000000000000000000000000081600181518110610d6157610d60612710565b5b60200101907effffffffffffffffffffffffffffffffffffffffffffffffffffffffffffff1916908160001a90535060005b6014811015610efd57836004848360148110610db257610db1612710565b5b1a60f81b7effffffffffffffffffffffffffffffffffffffffffffffffffffffffffffff1916901c60f81c60ff1681518110610df157610df0612710565b5b602001015160f81c60f81b82600283610e0a9190612a7c565b6002610e169190612b8a565b81518110610e2757610e26612710565b5b60200101907effffffffffffffffffffffffffffffffffffffffffffffffffffffffffffff1916908160001a90535083600f60f81b848360148110610e6f57610e6e612710565b5b1a60f81b1660f81c60ff1681518110610e8b57610e8a612710565b5b602001015160f81c60f81b82600283610ea49190612a7c565b6003610eb09190612b8a565b81518110610ec157610ec0612710565b5b60200101907effffffffffffffffffffffffffffffffffffffffffffffffffffffffffffff1916908160001a9053508080600101915050610d93565b50809350505050919050565b60008054906101000a900473ffffffffffffffffffffffffffffffffffffffff1673ffffffffffffffffffffffffffffffffffffffff163373ffffffffffffffffffffffffffffffffffffffff1614610f8160008054906101000a900473ffffffffffffffffffffffffffffffffffffffff16610c32565b604051602001610f919190612c46565b60405160208183030381529060405290610fe1576040517f08c379a0000000000000000000000000000000000000000000000000000000008152600401610fd89190612461565b60405180910390fd5b50600280811115610ff557610ff46122bf565b5b600360009054906101000a900460ff166002811115611017576110166122bf565b5b14600360009054906101000a900460ff166040516020016110389190612d23565b60405160208183030381529060405290611088576040517f08c379a000000000000000000000000000000000000000000000000000000000815260040161107f9190612461565b60405180910390fd5b506000600281111561109d5761109c6122bf565b5b8160028111156110b0576110af6122bf565b5b14806110e05750600160028111156110cb576110ca6122bf565b5b8160028111156110de576110dd6122bf565b5b145b61111f576040517f08c379a000000000000000000000000000000000000000000000000000000000815260040161111690612dbb565b60405180910390fd5b60005b600280549050811015611510576000600160006002848154811061114957611148612710565b5b90600052602060002001548152602001908152602001600020604051806080016040529081600082015481526020016001820160009054906101000a900473ffffffffffffffffffffffffffffffffffffffff1673ffffffffffffffffffffffffffffffffffffffff1673ffffffffffffffffffffffffffffffffffffffff1681526020016002820180546111dd906126df565b80601f0160208091040260200160405190810160405280929190818152602001828054611209906126df565b80156112565780601f1061122b57610100808354040283529160200191611256565b820191906000526020600020905b81548152906001019060200180831161123957829003601f168201915b5050505050815260200160038201548152505090506000600281111561127f5761127e6122bf565b5b836002811115611292576112916122bf565b5b1480156112b057508380519060200120816040015180519060200120145b156113875760006112e082606001516112ce846040015160006104b6565b600a806112db91906129c5565b611a63565b90506113266040518060400160405280601481526020017f6561726e696e6773203a20256420666f72202573000000000000000000000000815250828460200151611c12565b816020015173ffffffffffffffffffffffffffffffffffffffff166108fc829081150290604051600060405180830381858888f19350505050158015611370573d6000803e3d6000fd5b5084600490816113809190612f87565b5050611502565b6001600281111561139b5761139a6122bf565b5b8360028111156113ae576113ad6122bf565b5b036114bd5760006113c68260600151600a6064611a63565b90506000806113e2838560600151611b5190919063ffffffff16565b9150915081611426576040517f08c379a000000000000000000000000000000000000000000000000000000000815260040161141d906130cb565b60405180910390fd5b61146a6040518060400160405280601b81526020017f67697665206261636b206d6f6e6579203a20256420666f722025730000000000815250828660200151611c12565b836020015173ffffffffffffffffffffffffffffffffffffffff166108fc829081150290604051600060405180830381858888f193505050501580156114b4573d6000803e3d6000fd5b50505050611501565b6115006040518060400160405280600f81526020017f626574206c6f737420666f7220257300000000000000000000000000000000008152508260200151611cb1565b5b5b508080600101915050611122565b5080600360006101000a81548160ff02191690836002811115611536576115356122bf565b5b02179055505050565b600a81565b6002818154811061155457600080fd5b906000526020600020016000915090505481565b60048054611575906126df565b80601f01602080910402602001604051908101604052809291908181526020018280546115a1906126df565b80156115ee5780601f106115c3576101008083540402835291602001916115ee565b820191906000526020600020905b8154815290600101906020018083116115d157829003601f168201915b505050505081565b600080341161163a576040517f08c379a000000000000000000000000000000000000000000000000000000000815260040161163190613137565b60405180910390fd5b3373ffffffffffffffffffffffffffffffffffffffff1631341115611694576040517f08c379a000000000000000000000000000000000000000000000000000000000815260040161168b906131c9565b60405180910390fd5b600061169e611d4d565b905060405180608001604052808281526020013373ffffffffffffffffffffffffffffffffffffffff16815260200186868080601f016020809104026020016040519081016040528093929190818152602001838380828437600081840152601f19601f82011690508083019250505050505050815260200134815250600160008381526020019081526020016000206000820151816000015560208201518160010160006101000a81548173ffffffffffffffffffffffffffffffffffffffff021916908373ffffffffffffffffffffffffffffffffffffffff16021790555060408201518160020190816117949190612f87565b5060608201518160030155905050600281908060018154018082558091505060019003906000526020600020016000909190919091505561180a6040518060400160405280600d81526020017f42657420256420706c6163656400000000000000000000000000000000000000815250826119c7565b611872604051806060016040528060228152602001613434602291393487878080601f016020809104026020016040519081016040528093929190818152602001838380828437600081840152601f19601f8201169050808301925050505050505086611dc0565b809150509392505050565b606060028054806020026020016040519081016040528092919081815260200182805480156118cb57602002820191906000526020600020905b8154815260200190600101908083116118b7575b5050505050905090565b60008054906101000a900473ffffffffffffffffffffffffffffffffffffffff1681565b611993838383604051602401611911939291906131e9565b6040516020818303038152906040527f5821efa1000000000000000000000000000000000000000000000000000000007bffffffffffffffffffffffffffffffffffffffffffffffffffffffff19166020820180517bffffffffffffffffffffffffffffffffffffffffffffffffffffffff8381831617835250505050611e62565b505050565b60008060008385019050848110156119b75760008092509250506119c0565b60018192509250505b9250929050565b611a5f82826040516024016119dd92919061322e565b6040516020818303038152906040527fb60e72cc000000000000000000000000000000000000000000000000000000007bffffffffffffffffffffffffffffffffffffffffffffffffffffffff19166020820180517bffffffffffffffffffffffffffffffffffffffffffffffffffffffff8381831617835250505050611e62565b5050565b6000808385029050600080198587098281108382030391505060008103611a9e57838281611a9457611a93612abe565b5b0492505050611b4a565b808411611abe57611abd611ab86000861460126011611e7c565b611e96565b5b600084868809905082811182039150808303925060008560000386169050808604955080840493506001818260000304019050808302841793506000600287600302189050808702600203810290508087026002038102905080870260020381029050808702600203810290508087026002038102905080870260020381029050808502955050505050505b9392505050565b60008083831115611b685760008091509150611b72565b6001838503915091505b9250929050565b611c0f81604051602401611b8d9190612461565b6040516020818303038152906040527f41304fac000000000000000000000000000000000000000000000000000000007bffffffffffffffffffffffffffffffffffffffffffffffffffffffff19166020820180517bffffffffffffffffffffffffffffffffffffffffffffffffffffffff8381831617835250505050611e62565b50565b611cac838383604051602401611c2a9392919061326d565b6040516020818303038152906040527f1c7ec448000000000000000000000000000000000000000000000000000000007bffffffffffffffffffffffffffffffffffffffffffffffffffffffff19166020820180517bffffffffffffffffffffffffffffffffffffffffffffffffffffffff8381831617835250505050611e62565b505050565b611d498282604051602401611cc79291906132ab565b6040516020818303038152906040527f319af333000000000000000000000000000000000000000000000000000000007bffffffffffffffffffffffffffffffffffffffffffffffffffffffff19166020820180517bffffffffffffffffffffffffffffffffffffffffffffffffffffffff8381831617835250505050611e62565b5050565b6000611d8d6040518060400160405280601581526020017f43616c6c696e672067656e657261746542657449640000000000000000000000815250611b79565b424433604051602001611da293929190613344565b6040516020818303038152906040528051906020012060001c905090565b611e5c84848484604051602401611dda9493929190613381565b6040516020818303038152906040527fc67ea9d1000000000000000000000000000000000000000000000000000000007bffffffffffffffffffffffffffffffffffffffffffffffffffffffff19166020820180517bffffffffffffffffffffffffffffffffffffffffffffffffffffffff8381831617835250505050611e62565b50505050565b611e7981611e71611ea8611ec9565b63ffffffff16565b50565b6000611e8784611ed4565b82841802821890509392505050565b634e487b71600052806020526024601cfd5b60006a636f6e736f6c652e6c6f679050600080835160208501845afa505050565b611f1e819050919050565b60008115159050919050565b604051806080016040528060008152602001600073ffffffffffffffffffffffffffffffffffffffff16815260200160608152602001600081525090565b611f266133d4565b565b6000819050919050565b611f3b81611f28565b82525050565b6000602082019050611f566000830184611f32565b92915050565b6000604051905090565b600080fd5b600080fd5b611f7981611f28565b8114611f8457600080fd5b50565b600081359050611f9681611f70565b92915050565b600060208284031215611fb257611fb1611f66565b5b6000611fc084828501611f87565b91505092915050565b611fd281611f28565b82525050565b600073ffffffffffffffffffffffffffffffffffffffff82169050919050565b600061200382611fd8565b9050919050565b61201381611ff8565b82525050565b600081519050919050565b600082825260208201905092915050565b60005b83811015612053578082015181840152602081019050612038565b60008484015250505050565b6000601f19601f8301169050919050565b600061207b82612019565b6120858185612024565b9350612095818560208601612035565b61209e8161205f565b840191505092915050565b60006080830160008301516120c16000860182611fc9565b5060208301516120d4602086018261200a565b50604083015184820360408601526120ec8282612070565b91505060608301516121016060860182611fc9565b508091505092915050565b6000602082019050818103600083015261212681846120a9565b905092915050565b600080fd5b600080fd5b7f4e487b7100000000000000000000000000000000000000000000000000000000600052604160045260246000fd5b6121708261205f565b810181811067ffffffffffffffff8211171561218f5761218e612138565b5b80604052505050565b60006121a2611f5c565b90506121ae8282612167565b919050565b600067ffffffffffffffff8211156121ce576121cd612138565b5b6121d78261205f565b9050602081019050919050565b82818337600083830152505050565b6000612206612201846121b3565b612198565b90508281526020810184848401111561222257612221612133565b5b61222d8482856121e4565b509392505050565b600082601f83011261224a5761224961212e565b5b813561225a8482602086016121f3565b91505092915050565b6000806040838503121561227a57612279611f66565b5b600083013567ffffffffffffffff81111561229857612297611f6b565b5b6122a485828601612235565b92505060206122b585828601611f87565b9150509250929050565b7f4e487b7100000000000000000000000000000000000000000000000000000000600052602160045260246000fd5b600381106122ff576122fe6122bf565b5b50565b6000819050612310826122ee565b919050565b600061232082612302565b9050919050565b61233081612315565b82525050565b600060208201905061234b6000830184612327565b92915050565b61235a81611ff8565b82525050565b600082825260208201905092915050565b600061237c82612019565b6123868185612360565b9350612396818560208601612035565b61239f8161205f565b840191505092915050565b60006080820190506123bf6000830187611f32565b6123cc6020830186612351565b81810360408301526123de8185612371565b90506123ed6060830184611f32565b95945050505050565b600061240182611fd8565b9050919050565b612411816123f6565b811461241c57600080fd5b50565b60008135905061242e81612408565b92915050565b60006020828403121561244a57612449611f66565b5b60006124588482850161241f565b91505092915050565b6000602082019050818103600083015261247b8184612371565b905092915050565b6003811061249057600080fd5b50565b6000813590506124a281612483565b92915050565b600080604083850312156124bf576124be611f66565b5b600083013567ffffffffffffffff8111156124dd576124dc611f6b565b5b6124e985828601612235565b92505060206124fa85828601612493565b9150509250929050565b600080fd5b600080fd5b60008083601f8401126125245761252361212e565b5b8235905067ffffffffffffffff81111561254157612540612504565b5b60208301915083600182028301111561255d5761255c612509565b5b9250929050565b60008060006040848603121561257d5761257c611f66565b5b600084013567ffffffffffffffff81111561259b5761259a611f6b565b5b6125a78682870161250e565b935093505060206125ba86828701611f87565b9150509250925092565b600081519050919050565b600082825260208201905092915050565b6000819050602082019050919050565b60006125fc8383611fc9565b60208301905092915050565b6000602082019050919050565b6000612620826125c4565b61262a81856125cf565b9350612635836125e0565b8060005b8381101561266657815161264d88826125f0565b975061265883612608565b925050600181019050612639565b5085935050505092915050565b6000602082019050818103600083015261268d8184612615565b905092915050565b60006020820190506126aa6000830184612351565b92915050565b7f4e487b7100000000000000000000000000000000000000000000000000000000600052602260045260246000fd5b600060028204905060018216806126f757607f821691505b60208210810361270a576127096126b0565b5b50919050565b7f4e487b7100000000000000000000000000000000000000000000000000000000600052603260045260246000fd5b7f43616e6e6f742061646420746f74616c4c6f736572416d6f756e7420616e642060008201527f6265742e616d6f756e7400000000000000000000000000000000000000000000602082015250565b600061279b602a83612360565b91506127a68261273f565b604082019050919050565b600060208201905081810360008301526127ca8161278e565b9050919050565b7f43616e6e6f742061646420746f74616c57696e6e6572416d6f756e7420616e6460008201527f206265742e616d6f756e74000000000000000000000000000000000000000000602082015250565b600061282d602b83612360565b9150612838826127d1565b604082019050919050565b6000602082019050818103600083015261285c81612820565b9050919050565b7f4e487b7100000000000000000000000000000000000000000000000000000000600052601160045260246000fd5b60008160011c9050919050565b6000808291508390505b60018511156128e9578086048111156128c5576128c4612863565b5b60018516156128d45780820291505b80810290506128e285612892565b94506128a9565b94509492505050565b60008261290257600190506129be565b8161291057600090506129be565b816001811461292657600281146129305761295f565b60019150506129be565b60ff84111561294257612941612863565b5b8360020a91508482111561295957612958612863565b5b506129be565b5060208310610133831016604e8410600b84101617156129945782820a90508381111561298f5761298e612863565b5b6129be565b6129a1848484600161289f565b925090508184048111156129b8576129b7612863565b5b81810290505b9392505050565b60006129d082611f28565b91506129db83611f28565b9250612a087fffffffffffffffffffffffffffffffffffffffffffffffffffffffffffffffff84846128f2565b905092915050565b7f43616e6e6f7420616464207061727420616e6420310000000000000000000000600082015250565b6000612a46601583612360565b9150612a5182612a10565b602082019050919050565b60006020820190508181036000830152612a7581612a39565b9050919050565b6000612a8782611f28565b9150612a9283611f28565b9250828202612aa081611f28565b91508282048414831517612ab757612ab6612863565b5b5092915050565b7f4e487b7100000000000000000000000000000000000000000000000000000000600052601260045260246000fd5b6000612af882611f28565b9150612b0383611f28565b925082612b1357612b12612abe565b5b828204905092915050565b7f43616e6e6f742072656d6f766520666565732066726f6d206f64640000000000600082015250565b6000612b54601b83612360565b9150612b5f82612b1e565b602082019050919050565b60006020820190508181036000830152612b8381612b47565b9050919050565b6000612b9582611f28565b9150612ba083611f28565b9250828201905080821115612bb857612bb7612863565b5b92915050565b7f4f6e6c79207468652061646d696e200000000000000000000000000000000000815250565b600081905092915050565b6000612bfa82612019565b612c048185612be4565b9350612c14818560208601612035565b80840191505092915050565b7f2063616e20676976652074686520726573756c742e0000000000000000000000815250565b6000612c5182612bbe565b600f82019150612c618284612bef565b9150612c6c82612c20565b60158201915081905092915050565b7f526573756c7420697320616c726561647920676976656e20616e64206265747360008201527f20617265207265736f6c766564203a2000000000000000000000000000000000602082015250565b6000612cd7603083612be4565b9150612ce282612c7b565b603082019050919050565b60008160f81b9050919050565b6000612d0582612ced565b9050919050565b612d1d612d1882612315565b612cfa565b82525050565b6000612d2e82612cca565b9150612d3a8284612d0c565b60018201915081905092915050565b7f4f6e6c7920676976652077696e6e657273206f7220647261772c206e6f206f7460008201527f6865722063686f69636573000000000000000000000000000000000000000000602082015250565b6000612da5602b83612360565b9150612db082612d49565b604082019050919050565b60006020820190508181036000830152612dd481612d98565b9050919050565b60008190508160005260206000209050919050565b60006020601f8301049050919050565b600082821b905092915050565b600060088302612e3d7fffffffffffffffffffffffffffffffffffffffffffffffffffffffffffffffff82612e00565b612e478683612e00565b95508019841693508086168417925050509392505050565b6000819050919050565b6000612e84612e7f612e7a84611f28565b612e5f565b611f28565b9050919050565b6000819050919050565b612e9e83612e69565b612eb2612eaa82612e8b565b848454612e0d565b825550505050565b600090565b612ec7612eba565b612ed2818484612e95565b505050565b5b81811015612ef657612eeb600082612ebf565b600181019050612ed8565b5050565b601f821115612f3b57612f0c81612ddb565b612f1584612df0565b81016020851015612f24578190505b612f38612f3085612df0565b830182612ed7565b50505b505050565b600082821c905092915050565b6000612f5e60001984600802612f40565b1980831691505092915050565b6000612f778383612f4d565b9150826002028217905092915050565b612f9082612019565b67ffffffffffffffff811115612fa957612fa8612138565b5b612fb382546126df565b612fbe828285612efa565b600060209050601f831160018114612ff15760008415612fdf578287015190505b612fe98582612f6b565b865550613051565b601f198416612fff86612ddb565b60005b8281101561302757848901518255600182019150602085019450602081019050613002565b868310156130445784890151613040601f891682612f4d565b8355505b6001600288020188555050505b505050505050565b7f43616e6e6f7420737562206665657320616d6f756e742066726f6d20616d6f7560008201527f6e74000000000000000000000000000000000000000000000000000000000000602082015250565b60006130b5602283612360565b91506130c082613059565b604082019050919050565b600060208201905081810360008301526130e4816130a8565b9050919050565b7f42657420616d6f756e74206d75737420626520706f7369746976652e00000000600082015250565b6000613121601c83612360565b915061312c826130eb565b602082019050919050565b6000602082019050818103600083015261315081613114565b9050919050565b7f496e73756666696369656e742062616c616e636520746f20706c61636520746860008201527f6973206265742e00000000000000000000000000000000000000000000000000602082015250565b60006131b3602783612360565b91506131be82613157565b604082019050919050565b600060208201905081810360008301526131e2816131a6565b9050919050565b600060608201905081810360008301526132038186612371565b905081810360208301526132178185612371565b90506132266040830184611f32565b949350505050565b600060408201905081810360008301526132488185612371565b90506132576020830184611f32565b9392505050565b613267816123f6565b82525050565b600060608201905081810360008301526132878186612371565b90506132966020830185611f32565b6132a3604083018461325e565b949350505050565b600060408201905081810360008301526132c58185612371565b90506132d4602083018461325e565b9392505050565b6000819050919050565b6132f66132f182611f28565b6132db565b82525050565b60008160601b9050919050565b6000613314826132fc565b9050919050565b600061332682613309565b9050919050565b61333e613339826123f6565b61331b565b82525050565b600061335082866132e5565b60208201915061336082856132e5565b602082019150613370828461332d565b601482019150819050949350505050565b6000608082019050818103600083015261339b8187612371565b90506133aa6020830186611f32565b81810360408301526133bc8185612371565b90506133cb6060830184611f32565b95945050505050565b7f4e487b7100000000000000000000000000000000000000000000000000000000600052605160045260246000fdfe63616c63756c6174654f64647320666f72206f7074696f6e20257320616e642062657420616d6f756e7420697320256442657420706c616365643a202564206f6e202573206174206f646473206f66202564a26469706673582212206c522febeba10230a128542012e2c972a9f8339597cd71c7a45f4c8715b5d0dd64736f6c63430008180033",
  "linkReferences": {},
  "deployedLinkReferences": {}
}